:100000007EC10000ADC10000ABC10000A9C100006D
:10001000A7C10000A5C10000A3C10000A1C100004C
:100020009FC100009DC100009BC1000099C100005C
:1000300097C1000095C1000093C1000091C100006C
:100040008FC100008DC100008BC1000089C100007C
:1000500087C1000085C1000083C100000C946008C6
:100060007FC10000FEC60000D3C6000079C10000B9
:1000700077C1000075C1000073C1000071C10000AC
:100080006FC100006DC100006BC1000069C10000BC
:1000900067C1000065C1000063C1000061C10000CC
:1000A0005FC100005DC100005BC1000059C10000DC
:1000B00057C1000055C1000053C1000051C10000EC
:1000C0004FC100004DC100004BC1000049C10000FC
:1000D00047C1000045C1000043C1000041C100000C
:1000E0003FC1000082078507740778077E07BC07B9
:1000F00089078D07930797079B07A107A507A907FE
:10010000BC07AF07B307B707941099109E10AA1049
:10011000B6104311C210CA10D210DE10EA10F61049
:100120000711131143111F112B113711302E302ECF
:10013000302E30003132372E302E302E310000007C
:100140002100240027002A002D0030003300010187
:100150000000040107010A01000022002500280018
:100160002B002E00310034000201000005010801BF
:100170000B0172756E2D6272696467650A000A0070
:100180000A00000020002300260029002C002F0078
:100190003200000100000301060109010505050503
:1001A000070508080808020202020A0A08080404EF
:1001B000040401010101010101010303030303031D
:1001C0000303040707070C0C0C0C0C0C0C0C0202AC
:1001D000020206060606060606060B0B0B0B0B0BA9
:1001E0000B0B010210202008081020401020408036
:1001F00002010201080402010102040810204080EB
:100200008040201008040201800402018040201078
:1002100008040201080402010102040810204080C1
:1002200001020408102040802073657420746F2040
:100230000050696E20440000000A0B02090C0D0EEC
:100240000807030401000000000000000000000097
:10025000000000000000000000000000000000009E
:10026000000000121110000000000000000000005B
:100270000000000000000000000000000020726587
:1002800061647320616E616C6F67200050696E203D
:1002900041002073657420746F20616E616C6F671C
:1002A000200050696E2044006572726F723A2069B6
:1002B0006E76616C6964206D6F6465200020636FE9
:1002C0006E66696775726564206173204F5554507E
:1002D0005554210050696E20440020636F6E66699A
:1002E000677572656420617320494E505554210032
:1002F00050696E2044006572726F7200661211249C
:100300001FBECFEFD1E2DEBFCDBF00E00CBF23E0C8
:10031000ACEBB2E001C01D92A339B207E1F712E0E5
:10032000A0E0B2E0ECE4FBE200E00BBF02C007900B
:100330000D92AC3BB107D9F711E0CFE7D1E000E077
:1003400006C021970109802FFE010E946E13CE374F
:10035000D10780E00807A9F70E94B50D0C94A415F9
:100360004FCECF92DF92EF92FF920F931F93CF93D6
:10037000DF936C017A018B01C0E0D0E0CE15DF0580
:1003800089F0D8016D918D01D601ED91FC9101901C
:10039000F081E02DC6011995892B11F47E0102C070
:1003A0002196ECCFC701DF91CF911F910F91FF9064
:1003B000EF90DF90CF900895FC01538D448D252F51
:1003C00030E0842F90E0821B930B541710F0CF96EF
:1003D000089501970895FC01918D828D981761F021
:1003E000828DDF01A80FB11D5D968C91928D9F5F6C
:1003F0009F73928F90E008958FEF9FEF0895FC0117
:10040000918D828D981731F0828DE80FF11D858DC9
:1004100090E008958FEF9FEF0895FC01918D228D5C
:10042000892F90E0805C9F4F821B91098F739927E1
:10043000089585EC92E0F1DF21E0892B09F420E0BA
:10044000822F0895FC01848DDF01A80FB11DA35AEE
:10045000BF4F2C91848D90E001968F739927848FE4
:10046000A689B7892C93A089B1898C9180648C93DB
:10047000938D848D981306C00288F389E02D8081C6
:100480008F7D80830895EF92FF920F931F93CF93F8
:10049000DF93EC0181E0888F9B8D8C8D981305C0D4
:1004A000E889F989808185FD23C0F62E0B8D10E047
:1004B0000F5F1F4F0F731127E02E8C8DE8120BC0BA
:1004C0000FB607FCFACFE889F989808185FFF5CF5F
:1004D000CE01B8DFF2CF8B8DFE01E80FF11DE35A9C
:1004E000FF4FF0820B8FEA89FB898081806207C011
:1004F000EE89FF896083E889F9898081806480833F
:1005000081E090E0DF91CF911F910F91FF90EF90EC
:100510000895CF93DF93EC01888D8823C1F0EA8999
:10052000FB89808185FD05C0A889B9898C9186FDEC
:100530000EC00FB607FCF5CF808185FFF2CFA889EA
:10054000B9898C9185FFEDCFCE017CDFE8CFDF91BB
:10055000CF91089580E090E0892B19F06ADF811136
:1005600025C080E090E0892B41F080E090E0892B6D
:1005700021F00E94000081111CC080E090E0892BD6
:1005800041F080E090E0892B21F00E940000811171
:1005900013C080E090E0892BA1F080E090E0892BEF
:1005A00081F00E94000081110AC008950E9400009D
:1005B000D8CF0E940000E1CF0E940000EACF0C9447
:1005C000000008953FB7F8948091C1029091C20253
:1005D000A091C302B091C40226B5A89B05C02F3FCD
:1005E00019F00196A11DB11D3FBFBA2FA92F982F59
:1005F0008827820F911DA11DB11DBC01CD0142E0D4
:10060000660F771F881F991F4A95D1F708952FB756
:10061000F8946091BD027091BE028091BF029091EA
:10062000C0022FBF08950F931F93CF93DF93EC0168
:10063000EEDF688779878A879B87E881F981028462
:10064000F385E02DCE01199597FF16C0E0DF0885F0
:1006500019852A853B85DC01CB01801B910BA20B00
:10066000B30B0C811D812E813F8180179107A2075A
:10067000B30718F38FEF9FEFDF91CF911F910F9189
:1006800008950895FB012785FC012787FB01268536
:10069000FC0126870895FC0187850895089580E070
:1006A00090E008950F931F93CF93DF93EC0188811F
:1006B0009981009729F02A813B812617370788F412
:1006C0008B016F5F7F4F0E94A314009761F09983A5
:1006D00088831B830A832C813D81232B11F4FC0129
:1006E000108281E001C080E0DF91CF911F910F91D6
:1006F0000895EF92FF920F931F93CF93DF93FC0126
:10070000248135816115710511F480E018C041150F
:100710005105A1F07B01EC018A01020F131FB80102
:10072000C1DF882391F3288139818C819D81B701B4
:10073000820F931F0E949D151D830C8381E0DF9122
:10074000CF911F910F91FF90EF900895EF92FF923C
:100750000F931F93CF93DF9300D01F92CDB7DEB7D7
:100760007C01862F4AE08E010F5F1F4FB80190E099
:100770000E940013F80101900020E9F73197AF01C2
:10078000401B510BB801C701B4DF0F900F900F90C1
:100790000F90DF91CF911F910F91FF90EF900895EF
:1007A000CF93DF931F921F92CDB7DEB769831A8272
:1007B00041E050E0BE016F5F7F4F9BDF0F900F90D5
:1007C000DF91CF910895CF93DF93EC0188819981D8
:1007D000009711F00E940B14198218821D821C824E
:1007E0001B821A82DF91CF910895EF92FF920F93AF
:1007F0001F93CF93DF93EC018B016115710549F0D5
:10080000CB010E94ED127C01BC01CE014BDF8111B6
:1008100003C0CE01D8DF07C0FD82EC82B801888119
:1008200099810E94E612CE01DF91CF911F910F9125
:10083000FF90EF900895AF92BF92CF92DF92EF9228
:10084000FF920F931F93CF93DF931F921F92CDB709
:10085000DEB7FC0187858823A9F05A019B018CE64D
:10086000898386858A83C12CD12CE12CF12C8A01C5
:1008700042E050E0BE016F5F7F4F84859585DBD6F7
:10088000C50102C080E090E00F900F90DF91CF9102
:100890001F910F91FF90EF90DF90CF90BF90AF909E
:1008A0000895FC0124813581232B31F421E0611569
:1008B0007105A1F0FB0108C0FC01808191816115E7
:1008C000710531F421E0FC018081882339F005C0F5
:1008D0000E94941521E0892B09F020E0822F0895D1
:1008E000EF92FF920F931F93CF93DF93CDB7DEB7B5
:1008F00028970FB6F894DEBF0FBECDBF7C01CB01A9
:100900004AE08E010F5F1F4FB8010E940013F801EB
:1009100001900020E9F73197AF01401B510BB8015E
:10092000C701E7DE28960FB6F894DEBF0FBECDBF35
:10093000DF91CF911F910F91FF90EF900895611576
:10094000710549F0FB0101900020E9F73197AF01F3
:10095000461B570BCECE80E00895FC01808191812B
:100960000C940B14AF92BF92CF92DF92EF92FF9252
:100970000F931F93CF93DF93CDB7DEB72A970FB6B0
:10098000F894DEBF0FBECDBF5C018EE48F83F5010E
:1009900086819781988789871A8219821C821B8297
:1009A0001E821D8264E371E0CE0101961EDFF50117
:1009B0008185811105C06CE271E0CE01019615DFE1
:1009C0000D811E8129813A81CC24C394D12CCE0182
:1009D0000A967C0143E050E0BE01695F7F4FF5015C
:1009E0008481958128D681E09A85913009F080E054
:1009F000F5018087CE010196B0DF2A960FB6F894F4
:100A0000DEBF0FBECDBFDF91CF911F910F91FF9041
:100A1000EF90DF90CF90BF90AF900895CF92DF928C
:100A2000EF92FF920F931F93CF93DF93CDB7DEB773
:100A300062970FB6F894DEBF0FBECDBF8C01CB011D
:100A4000F80111821082138212821582148250E002
:100A50009E012F5F3F4F6901B9010E94F612F60116
:100A600001900020E9F731977F01EC18FD08B701EC
:100A7000C80118DE811103C0C801A5DE08C0F80155
:100A8000F582E482B601808191810E949D15629673
:100A90000FB6F894DEBF0FBECDBFDF91CF911F918F
:100AA0000F91FF90EF90DF90CF900895EF92FF921B
:100AB0000F931F93CF93DF93EC01198218821B824F
:100AC0001A821D821C826115710511F18B01FB01D7
:100AD00001900020E9F731977F01E61AF70AB70184
:100AE000E1DD811108C0CE01DF91CF911F910F91FF
:100AF000FF90EF9068CEFD82EC82B80188819981E9
:100B0000DF91CF911F910F91FF90EF900C949D1565
:100B1000DF91CF911F910F91FF90EF900895EF9289
:100B2000FF920F931F93CF93DF93CDB7DEB7289734
:100B30000FB6F894DEBF0FBECDBF7C018B016CEA0F
:100B400072E0CE0101964F835887B0DF62E170E01A
:100B5000CE010196A7DDD80112966C91CE010196C7
:100B6000F5DD6EE2CE0101961BDEF8016381CE0158
:100B70000196ECDD6EE2CE01019612DED8011496EC
:100B80006C91CE010196E2DD6EE2CE01019608DEA7
:100B9000F8016581CE010196D9DDD701ED91FC9177
:100BA00069817A810088F189E02D4F815885C701DC
:100BB00019958C01CE010196D0DEC80128960FB69A
:100BC000F894DEBF0FBECDBFDF91CF911F910F9183
:100BD000FF90EF900895EF92FF920F931F93CF93A2
:100BE000DF93EC017B01042F6CEA72E05FDFC70149
:100BF0001ADD002E000C110B97FD09C0801791071C
:100C000031F0682FCE01CCDDC7010DDDF5CFCE016F
:100C1000DF91CF911F910F91FF90EF9008950F9367
:100C20001F93CF93DF93EC01F2DC688779878A8783
:100C30009B87E881F9810484F585E02DCE01199523
:100C400097FF16C0E4DC088519852A853B85DC0101
:100C5000CB01801B910BA20BB30B0C811D812E814C
:100C60003F8180179107A207B30718F38FEF9FEF1B
:100C7000DF91CF911F910F910895DC01ED91FC91CF
:100C80000190F081E02D1994EF92FF920F931F9342
:100C9000CF93DF938C017B01C0E0D0E0F701EC0F34
:100CA000FD1F6491662361F0D801ED91FC910190E4
:100CB000F081E02DC8011995892B11F02196EECF16
:100CC000CE01DF91CF911F910F91FF90EF9008958A
:100CD0006115710579F0FB0101900020E9F731976A
:100CE000AF01461B570BDC01ED91FC910280F381B3
:100CF000E02D199480E090E008954F925F926F92FA
:100D00007F92EF92FF920F931F93CF93DF93CDB714
:100D1000DEB7A1970FB6F894DEBF0FBECDBF7C0142
:100D2000FA01CB0119A2223008F42AE08E010F5DEE
:100D30001F4F422E512C612C712CBF01A301920137
:100D40000E944C13F901CA01015011096A3014F4D0
:100D5000605D01C0695CD8016C93232B242B252B8B
:100D600061F7B801C701B4DFA1960FB6F894DEBFF2
:100D70000FBECDBFDF91CF911F910F91FF90EF90EC
:100D80007F906F905F904F9008958F929F92AF9257
:100D9000BF92CF92DF92EF92FF920F931F93CF9368
:100DA000DF937C018B016C0182E0C80ED11C4701EE
:100DB000E5E08E0E911CC0E0D0E0F60141916F019C
:100DC00050E060E070E02AE0C80197DF5C016EE26D
:100DD000C80153DF8A0D9B1DC80FD91FC814D90441
:100DE00061F7F701458150E060E070E02AE0C8015A
:100DF00084DF8C0F9D1FDF91CF911F910F91FF908A
:100E0000EF90DF90CF90BF90AF909F908F9008951C
:100E10001F920F920FB60F9211240BB60F922F93C1
:100E20003F934F935F936F937F938F939F93AF9372
:100E3000BF93EF93FF9385EC92E004DBFF91EF917A
:100E4000BF91AF919F918F917F916F915F914F91E2
:100E50003F912F910F900BBE0F900FBE0F901F90E0
:100E600018951F920F920FB60F9211240BB60F9286
:100E70002F938F939F93EF93FF93E091D502F0917F
:100E8000D6028081E091DB02F091DC0282FD12C08B
:100E900090818091DE028F5F8F732091DF02821735
:100EA00051F0E091DE02F0E0EB53FD4F958F80931F
:100EB000DE0201C08081FF91EF919F918F912F9170
:100EC0000F900BBE0F900FBE0F901F90189590E0E3
:100ED000FC013197E231F10508F04EC08827EE5849
:100EE000FF4F8F4F0C946E13809180008F7703C05B
:100EF000809180008F7D8093800008958091800094
:100F0000877FF9CF84B58F7702C084B58F7D84BD8C
:100F100008958091B0008F7703C08091B0008F7DDD
:100F20008093B0000895809190008F7707C08091E2
:100F300090008F7D03C080919000877F8093900008
:100F400008958091A0008F7707C08091A0008F7DC9
:100F500003C08091A000877F8093A00008958091B6
:100F600020018F7707C0809120018F7D03C0809181
:100F70002001877F8093200108951F93CF93DF93F3
:100F8000282F30E0F901E95CFD4F8491F901EE5121
:100F9000FE4FD491F901E456FE4FC491CC23C1F029
:100FA000162F811194DFEC2FF0E0EE0FFF1FE85AAF
:100FB000FE4FA591B4918FB7F894111105C09C9183
:100FC000ED2FE095E92302C0EC91ED2BEC938FBF60
:100FD000DF91CF911F910895CF93DF9390E0FC01B3
:100FE000EE51FE4F2491FC01E456FE4F849188237C
:100FF00061F190E0880F991FFC01E25CFE4FC59102
:10100000D491FC01E85AFE4FA591B491611109C039
:101010009FB7F8948881209582238883EC912E23B2
:101020000BC0623061F49FB7F8943881822F8095AD
:1010300083238883EC912E2B2C939FBF06C08FB700
:10104000F894E8812E2B28838FBFDF91CF910895EC
:101050008F929F92AF92BF92CF92DF92EF92FF92C8
:101060006B017C01AFDA4B015C01C114D104E104D6
:10107000F104E9F0A7DADC01CB0188199909AA0982
:10108000BB09883E9340A105B10578F321E0C21A5F
:10109000D108E108F10888EE880E83E0981EA11CB3
:1010A000B11CC114D104E104F10421F7DECFFF909B
:1010B000EF90DF90CF90BF90AF909F908F9008956A
:1010C0001F920F920FB60F9211242F933F938F937D
:1010D0009F93AF93BF938091BD029091BE02A09168
:1010E000BF02B091C0023091BC0223E0230F2D3724
:1010F00020F40196A11DB11D05C026E8230F02961C
:10110000A11DB11D2093BC028093BD029093BE022D
:10111000A093BF02B093C0028091C1029091C2021D
:10112000A091C302B091C4020196A11DB11D80938C
:10113000C1029093C202A093C302B093C402BF91B4
:10114000AF919F918F913F912F910F900FBE0F9074
:101150001F901895CF93DF93EC018D819E81DC0168
:10116000ED91FC910084F185E02D19951816190672
:1011700054F48D819E81DC01ED91FC910284F38514
:10118000E02D1995EACFDF91CF9108958F929F922C
:10119000AF92BF92CF92DF92EF92FF92CF93DF9305
:1011A000EC016B0134DA4B015C01E12CF12C8D81F7
:1011B0009E81DC01ED91FC910284F385E02D19956F
:1011C00097FF0EC024DADC01CB0188199909AA091E
:1011D000BB098C159D05AE05BF0548F38FEF9FEF4A
:1011E000DF91CF91FF90EF90DF90CF90BF90AF90C5
:1011F0009F908F900895FC01238134812627022E31
:101200002295207F2025032E322F22952F70022633
:10121000269532272327220F220F220F20253483E1
:1012200023830895CF92DF92EF92FF920F931F9343
:101230006801790100E010E020E030E0FCD11F916E
:101240000F91FF90EF90DF90CF900895AF92BF92F3
:10125000CF92DF92EF92FF920F931F93CF93DF9382
:10126000CDB7DEB727970FB6F894DEBF0FBECDBF60
:101270005C019B0183E489835A834B83FB010190CA
:101280000020E9F731978F01061B170BCC24C3947C
:10129000D12CCE0107967C0143E050E0BE016F5F88
:1012A0007F4FD5011C968D919C911D97C4D1892BA0
:1012B000B1F18F81F501868793E69C838D8301E0F0
:1012C00010E09E012A5F3F4F42E050E0BE016C5F9C
:1012D0007F4FD5011C968D919C911D97A3DF8E8128
:1012E000882331F061E070E080E090E0B1DEE7CF8C
:1012F00081E0F50187870190F081E02D0688F7896C
:10130000E02DC501199581110DC0D501ED91FC911C
:101310000488F589E02DC5011995F501168680E050
:1013200090E002C081E090E027960FB6F894DEBF0F
:101330000FBECDBFDF91CF911F910F91FF90EF9026
:10134000DF90CF90BF90AF900895EF92FF920F93F0
:101350001F93CF93DF9300D0CDB7DEB7DC011F968C
:101360002C911F972223F9F07C01ED91FC910084D0
:10137000F185E02D1995892BC1F48CE48983F7015F
:1013800086858A8301E010E09E012D5F3F4F42E099
:1013900050E0BE016F5F7F4F8485958543DF81E01C
:1013A0009B81913019F080E001C081E00F900F9097
:1013B0000F90DF91CF911F910F91FF90EF900895C3
:1013C000EF92FF920F931F93CF93DF9300D0CDB78F
:1013D000DEB7FC012089211117C07C01118A8BE442
:1013E000898380E48B8386858A839F012E5E3F4FAD
:1013F00000E410E043E050E0BE016F5F7F4F848562
:10140000958510DFF701808B0F900F900F90DF9183
:10141000CF911F910F91FF90EF900895CF93DF939D
:10142000EC01CEDF8889882331F08989C80FD11D6E
:101430008A8990E002C08FEF9FEFDF91CF910895EE
:10144000CF92DF92EF92FF920F931F93CF93DF9390
:10145000EC016A017B0100E010E08889811105C080
:10146000CE01AEDF8889882399F00F5F1F4F8989ED
:1014700091E0980F998BFE01E80FF11D8289F70129
:1014800081937F0188898150888B0C151D0528F375
:10149000C801DF91CF911F910F91FF90EF90DF90E6
:1014A000CF900895CF93DF93EC018ADF888988235A
:1014B00059F08150888B898991E0980F998BC80FDA
:1014C000D11D8A8990E002C08FEF9FEFDF91CF910D
:1014D0000895CF93DF93EC0173DF888990E0DF916B
:1014E000CF9108950F931F9300E010E020E030E0CB
:1014F00099DE1F910F910895CF93DF931F921F9252
:10150000CDB7DEB722E629836A8342E050E0BE0110
:101510006F5F7F4FFC0184819581E4DF81E090E083
:101520000F900F90DF91CF910895CF93DF9300D06C
:10153000CDB7DEB7FC012785222381F08CE68983B5
:1015400086858A836B8343E050E0BE016F5F7F4FE7
:1015500084859585C7DF81E090E002C080E090E05F
:101560000F900F900F90DF91CF9108950F931F93DD
:10157000CF93DF931F921F92CDB7DEB78C01FC0192
:101580008785882361F08AE6898386858A8342E09D
:1015900050E0BE016F5F7F4F84859585A3DFF80122
:1015A0001786108A118A0F900F90DF91CF911F91AB
:1015B0000F910895DC01FB018281938113969C9326
:1015C0008E931297448155816681778114964D934D
:1015D0005D936D937C9317974085518562857385E4
:1015E00018964D935D936D937C931B9782E392E0E5
:1015F00011969C938E93848595851D969C938E93CE
:101600001C9786851E968C931E9787851F968C93B4
:101610001F97808950968C935097818951968C930F
:10162000519780E47296529601900D928A95E1F757
:1016300008950E9487152F923F924F925F926F926A
:101640007F928F929F92AF92BF92CF92DF92EF9252
:10165000FF920F931F93CF93DF93CDB7DEB72B97F6
:101660000FB6F894DEBF0FBECDBF9B878A875B01A4
:101670001901FD82EC823A01600E711E872C7B827B
:10168000912C44244A94542C9B01240F351F3F83F2
:101690002E839101200F311F39872887EA85FB852A
:1016A0008085981608F022C1AA85BB8514965C92A5
:1016B0004E92139715968D919C911697DC01ED91A2
:1016C000FC910190F081E02D6FEF19956FEF8A8505
:1016D0009B8591DDEA85FB8585819681DC01ED9115
:1016E000FC910190F081E02DAA85BB856C91199544
:1016F000EA85FB856081CF017EDDAA85BB851596D5
:101700008D919C911697DC01ED91FC910190F081F7
:10171000E02D682D19956B818A859B856CDDEA85A6
:10172000FB8585819681DC01ED91FC910190F08132
:10173000E02D662D1995662D8A859B855CDD7501EA
:101740002E813F81E216F306A9F0EA85FB858581AB
:1017500096818701DC01ED91FC910190F081E02DF3
:10176000D7016D917D011995F80160818A859B856E
:1017700042DDE6CF7101AA85BB8515968D919C91BE
:10178000169728853985E216F30689F08701DC0172
:10179000ED91FC910190F081E02DD7016D917D01DB
:1017A0001995F80160818A859B8525DDE4CFDC01F0
:1017B000ED91FC91AA85BB8514966C910190F08106
:1017C000E02D1995EA85FB8585819681DC01ED91F7
:1017D000FC910190F081E02DAA85BB8513966C9158
:1017E000199568EC70E08A859B85D0DC8F3F910568
:1017F00009F072C0EA85FB85548243826FEFCF0106
:10180000FADC65E070E08A859B85C0DCAA85BB8533
:101810006C91262F30E08217930709F05DC0CD014F
:10182000EADC6AE070E08A859B85B0DC7C0197FD8C
:1018300053C0682F8A859B85DEDC6AE070E08A856C
:101840009B85A4DC8C0197FD47C0682F8A859B850A
:10185000D2DCEA821982E981FA810E0F1F1FE12C86
:10186000F12C65E070E08A859B85E016F10699F021
:10187000EC14FD0481F08ADC97FD09C0EC81FD8148
:10188000EE0DFF1D8083682F8A859B85B4DCFFEFFA
:10189000EF1AFF0AE6CF7ADC7C0197FD1DC065E0F8
:1018A00070E08A859B8572DC97FD16C0FE2CEE24C5
:1018B0008E0D9F1DAA85BB8513962D913C91149783
:1018C0002817390749F48C918F5F8C93C801C01693
:1018D000D10670F4C6010CC0939464E670E080E019
:1018E00090E0B6DB8A859B8535DCD8CE8FEF9FEF05
:1018F0002B960FB6F894DEBF0FBECDBFDF91CF9110
:101900001F910F91FF90EF90DF90CF90BF90AF901D
:101910009F908F907F906F905F904F903F902F900F
:101920000895EF92FF920F931F93CF93DF93CDB75C
:10193000DEB727970FB6F894DEBF0FBECDBF7C0190
:101940008B016AE972E0CE010196B0D8B701CE01F1
:1019500001960E949F046AEB72E0CE0101960E94FC
:101960009F04B801CE0101960E949F044D815E81C3
:1019700069817A8101E010E09E01295F3F4F82E694
:1019800093E050DCCE0101960E94AD0427960FB67D
:10199000F894DEBF0FBECDBFDF91CF911F910F91A5
:1019A000FF90EF900895CF92DF92EF92FF920F9306
:1019B0001F93CF93DF938C016B01770FEE08FF0825
:1019C000F7FE10C06DE259D9EC0144275527BA0142
:1019D0004C195D096E097F092AE0C8018ED9C80F2C
:1019E000D91F05C02AE0B701A60187D9EC016AEA30
:1019F00072E0C8016DD98C0F9D1FDF91CF911F91AF
:101A00000F91FF90EF90DF90CF900895CF92DF92EB
:101A1000EF92FF920F931F93CF93DF936B01770F9A
:101A2000EE08FF08F7FE19C0EC016DE226D98C0123
:101A300044275527BA014C195D096E097F092AE030
:101A4000CE015BD9800F911FDF91CF911F910F9134
:101A5000FF90EF90DF90CF9008952AE0B701A601A4
:101A6000DF91CF911F910F91FF90EF90DF90CF907A
:101A700044C9AF92BF92CF92DF92EF92FF921F9331
:101A8000CF93DF9300D01F92CDB7DEB75C01C501C5
:101A9000C6D8FC0197FD0FC08D32910581F0C0972B
:101AA0000A9768F0D501ED91FC910284F385E02D51
:101AB000C5011995ECCF60E070E0CB0148C020E093
:101AC00030E0A90110E0E130F105E1F0ED32F1057F
:101AD000C1F0CF01C0970A97A8F4AAE0B0E0C3D53F
:101AE0006F01FF0FEE08FF08DC01CB018C0D9D1D7F
:101AF000AE1DBF1D9C01AD012053310941095109A3
:101B000001C011E0D501ED91FC910284F385E02D37
:101B1000C50129833A834B835C831995C5017FD81E
:101B2000FC01C09729813A814B815C810A9758F268
:101B3000E130F10541F2112341F066277727CB010F
:101B4000621B730B840B950B02C0CA01B9010F9085
:101B50000F900F900F90DF91CF911F91FF90EF901A
:101B6000DF90CF90BF90AF900895CF93DF93CDB724
:101B7000DEB7C950D1400FB6F894DEBF0FBECDBF5F
:101B8000789484B5826084BD84B5816084BD85B558
:101B9000826085BD85B5816085BD80916E00816064
:101BA00080936E001092810080918100826080930A
:101BB000810080918100816080938100809180000C
:101BC0008160809380008091B10084608093B10037
:101BD0008091B00081608093B0008091910082601C
:101BE0008093910080919100816080939100809119
:101BF00090008160809390008091A100826080932A
:101C0000A1008091A10081608093A1008091A0003B
:101C100081608093A00080912101826080932101E6
:101C20008091210181608093210180912001816058
:101C30008093200180917A00846080937A00809163
:101C40007A00826080937A0080917A00816080932C
:101C50007A0080917A00806880937A001092C100A7
:101C600060E086E3B9D961E082E0B6D960E087E35D
:101C7000B3D9E0916B03F0916C03A089B18982E044
:101C80008C93A485B5851C92A685B78587E08C9337
:101C9000108EA489B58986E08C93A289B3898C9132
:101CA00080618C93A289B3898C9188608C93A2897E
:101CB000B3898C9180688C930288F389E02D8081B0
:101CC0008F7D8083809169038111C6C081E08093FC
:101CD000690382E693E03EDA68EE73E080E090E02C
:101CE000B7D98091670390916803DC01ED91FC9175
:101CF0000084F185E02D19951816190654F355E066
:101D0000F52EEE24E39462E3D62EE6E0F2E0DE0167
:101D1000AD5ABF4F8F2D01900D928A95E1F7E09259
:101D20006A0345E050E0BE016D5A7F4F82E693E0C2
:101D3000D9DB63E080916703909168030E943D06C0
:101D40006AEF70E080E090E083D960E871E0809114
:101D50006703909168030E9444066AEF70E080E098
:101D600090E076D96EE771E0809167039091680307
:101D70000E94440664EF71E080E090E069D962E778
:101D800071E080916703909168030E94440664EFBC
:101D900071E080E090E05CD982E693E0DBD9EBE093
:101DA000F2E0DE0111968F2D01900D928A95E1F7F8
:101DB000D0926A0304E010E09E012B553F4F45E0AE
:101DC00050E0BE016F5F7F4F82E693E02BDA8F3FDA
:101DD000BFEF9B0731F468EE73E080E090E038D904
:101DE00094CFCB55DF4F2881C55AD0402111FFCF6A
:101DF000049749F5CA55DF4F2881C65AD04030E0D4
:101E00002053310984E6829FA001839F500D112445
:101E1000C955DF4F2881C75AD04030E020533109DF
:101E20006AE0629FC001639F900D1124840F951F8B
:101E3000C855DF4F2881C85AD04030E020533109BF
:101E4000820F931F02C084E690E090936403809316
:101E5000630382E380936A0381E0809376038DE6D7
:101E600093E00E94B2049BE6792E28EE822E23E0B6
:101E7000922EA12CB12C32E3E32E32E0F32E42E677
:101E8000C42E43E0D42E6624639464967FAE649798
:101E900001E010E09E012F5F3F4F41E050E0BE01A6
:101EA0006D5A7F4F8091710390917203BBD9892B3A
:101EB00029F5C955DF4F19821882C75AD040C75536
:101EC000DF4F88829982AA82BB82C95AD040CB5503
:101ED000DF4FF982E882C55AD040CF54DF4FD98214
:101EE000C882C15BD040CD54DF4F1882C35BD04065
:101EF000CC54DF4F1882C45BD04025C08981C955BE
:101F0000DF4F19821882C75AD040C755DF4F8882E9
:101F10009982AA82BB82C95AD040CB55DF4FF98241
:101F2000E882C55AD040CF54DF4FD982C882C15B06
:101F3000D040CD54DF4F8883C35BD040CC54DF4FBB
:101F40006882C45BD040CB54DF4F1882C55BD04061
:101F5000CC54DF4F8881C45BD040882309F4ADC2E4
:101F6000BE016B557F4FCE018D5A9F4F23DB4FE251
:101F7000BE016D5A7F4FCE018D5F9E4F0E94EB05D3
:101F800062E972E0CE018D5F9E4F0E94510488236A
:101F900009F47FC0BE016D5A7F4FCE0101960ADB66
:101FA000CE01019666DD362E062F172FCE01019643
:101FB00079DA8F9749F4CE0101965BDD572E462ED4
:101FC000832D0E94BD0726C0232D30E0F901E95C76
:101FD000FD4F8491F901EE51FE4F5490F901E45602
:101FE000FE4F44904420A1F081110E946707E42D28
:101FF000F0E0EE0FFF1FEE57FE4FA591B491EC916C
:102000005E2291E080E009F490E0492E582E02C053
:10201000412C512C61E372E0CE0101960E944406EE
:10202000B801CE010196F2DC68E272E0CE010196C1
:102030000E944406B201CE010196B5DC6AE972E065
:10204000CE0183509F4F0E945605B801CE018350A8
:102050009F4F0E9470044AE0B201CE0189509F4F09
:102060000E940E05C950DF4F68817981C75FD0405B
:10207000C350DF4F88819981CD5FD04052DCCE01C3
:1020800089509F4F0E94AD04CE0183509F4F0E9404
:10209000AD046CE972E0CE018D5F9E4F0E94510449
:1020A000882309F46FC1BE016D5A7F4FCE0101969E
:1020B00081DACE010196DDDC362E062F172FCE01F8
:1020C0000196F0D98F9709F0FFC0CE010196D1DCBF
:1020D000262E462E572E61E0832DC75FDE4F788374
:1020E000C950D1400E94EC07C75FDE4F7881C950CC
:1020F000D1404114510409F4CAC02FEF42165104D3
:1021000009F4C7C0E32DF0E0E95CFD4FE4918E2FA8
:1021100090E0FC013197E231F10508F0B4C0882766
:10212000EC57FF4F8F4FDAC284B5806884BD27BC5F
:10213000B4C084B5806284BD28BCAFC080918000EB
:10214000806880938000822D972F909389008093E0
:102150008800A3C080918000806280938000822DDF
:10216000972F90938B0080938A0097C08091800076
:10217000886080938000822D972F90938D008093AC
:102180008C008BC08091B00080688093B00020925A
:10219000B30083C08091B00080628093B000209231
:1021A000B4007BC080919000806880939000822D65
:1021B000972F90939900809398006FC08091900022
:1021C000806280939000822D972F90939B00809344
:1021D0009A0063C080919000886080939000822D67
:1021E000972F90939D0080939C0057C08091A000F2
:1021F00080688093A0008091A0008F7B8093A000D6
:10220000822D972F9093A9008093A80046C08091BB
:10221000A00080628093A000822D972F9093AB0046
:102220008093AA003AC08091A00088608093A000AB
:10223000822D972F9093AD008093AC002EC080919B
:102240002001806880932001822D972F909329018F
:102250008093280122C08091200180628093200118
:10226000822D972F90932B0180932A0116C0809185
:102270002001886080932001822D972F90932D015B
:1022800080932C010AC080E84816510414F460E0E1
:1022900001C061E0832D0E94BD0762EA72E0CE01B9
:1022A00001960E944406B801CE010196AFDB62E9B7
:1022B00072E0CE0101960E944406B201CE01019661
:1022C00072DB6AE972E035C0832D063308F086536D
:1022D00090917B00282F2870977F922B90937B0002
:1022E0008770806480937C0080917A008064809302
:1022F0007A0080917A0086FDFCCF40907800809132
:102300007900512C582A6CE872E0CE0101960E94A7
:102310004406B801CE01019679DB6DE772E0CE018B
:1023200001960E944406B201CE0101963CDB63EAAD
:1023300072E0CE0183509F4F0E945605B801CE0136
:1023400083509F4F0E9470044AE0B201CE01895031
:102350009F4F0E940E05C950DF4F68817981C75F8A
:10236000D040C350DF4F88819981CD5FD040D9DA0A
:10237000CE0189509F4F0E94AD04CE0183509F4FE4
:102380000E94AD0465EA72E0CE018D5F9E4F0E940F
:102390005104882309F488C0BE016D5A7F4FCE01D5
:1023A000019608D9CE01019664DB562ECE01019626
:1023B000C75FDE4F7883C950D14074D8C75FDE4F06
:1023C0007881C950D1408F9769F066EF72E0CE01F5
:1023D00001960E9444066AEA72E0CE0101960E94CC
:1023E000680662C0052D172F4DE0BE016F5F7F4F5D
:1023F000CE0189509F4F0E94EB056DEA72E0CE013D
:1024000089509F4F0E945104882389F060E0852DF8
:102410000E94EC0760EF72E0CE0101960E94440634
:10242000B801CE010196F2DA6AED72E019C063EBF1
:1024300072E0CE0189509F4F0E9451048823A9F079
:1024400061E0852D0E94EC0764ED72E0CE010196FB
:102450000E944406B801CE010196D8DA6DEB72E015
:10246000CE0101960E9444061AC068EA72E0CE01CD
:1024700001960E944406E981FA81C550DF4F4881E8
:102480005981CB5FD040C950DF4F68817981C75FE8
:10249000D0400280F381E02DCE0101961995CE0146
:1024A00089509F4F0E94AD04CE018D5F9E4F0E94C8
:1024B000AD04CE018B559F4F59D862E370E080E0A8
:1024C00090E00E9428080E94AA02DFCCE7E7F3E030
:1024D00080E992E0918380831282138214821582B4
:1024E000E5ECF2E01382128248EE53E060E070E027
:1024F000448355836683778322E532E031832083EA
:1025000025EC30E03587248724EC30E037872687B8
:1025100020EC30E0318B208B21EC30E0338B228BB0
:1025200022EC30E0358B248B26EC30E0378B268B89
:10253000118E128E138E148EADE7B3E011969C931C
:102540008E9312961C92129713961C9213971496C0
:102550001C92149715961C92A3E8B3E011969C93D5
:102560008E9312961C92129713961C9213971496A0
:102570001C92149715961C92A2E6B3E01C92169634
:10258000FC93EE93159717961C92179718961C922A
:1025900018971A96FC93EE931997E9E8F3E0918364
:1025A00080831282138214821582EDE6F3E0138297
:1025B000128286E792E091838083B583A48383EBC4
:1025C00095E197838683108611860895FB01DC01CF
:1025D00005900D920020E1F70895FC010590002080
:1025E000E9F7809590958E0F9F1F0895453251050C
:1025F00018F4423008F004C0FB011082CB010895AA
:10260000BB274A3031F4992322F4BDE2909581959D
:102610009F4F01C0BB27FB015527AA27880F991F91
:10262000AA1FA41710F0A41B83955051B9F7A05D01
:10263000AA3308F0A95DA193009779F7B111B1937E
:102640001192CB0100C0DC01FC01672F719177234F
:10265000E1F7329704C07C916D9370836291AE175D
:10266000BF07C8F3089509D0A59F900DB49F900DA2
:10267000A49F800D911D11240895A29FB001B39FC6
:10268000C001A39F700D811D1124911DB29F700D7B
:10269000811D1124911D0895A1E21A2EAA1BBB1BB6
:1026A000FD010DC0AA1FBB1FEE1FFF1FA217B3071E
:1026B000E407F50720F0A21BB30BE40BF50B661F34
:1026C000771F881F991F1A9469F7609570958095F8
:1026D00090959B01AC01BD01CF010895EE0FFF1F46
:1026E000881F8BBF0790F691E02D1994CF93DF934D
:1026F0008230910510F482E090E0E0919103F09136
:10270000920320E030E0C0E0D0E0309711F140814A
:10271000518148175907C0F04817590761F4828161
:102720009381209719F09B838A832BC09093920307
:102730008093910326C02115310519F042175307E4
:1027400018F49A01BE01DF01EF010280F381E02D50
:10275000DCCF2115310509F1281B390B2430310557
:1027600090F412968D919C9113976115710521F04B
:10277000FB019383828304C090939203809391031F
:10278000FD01329644C0FD01E20FF31F8193919346
:10279000225031092D933C933AC020918F03309100
:1027A0009003232B41F420910202309103023093D5
:1027B000900320938F032091000230910102211594
:1027C000310541F42DB73EB7409104025091050206
:1027D000241B350BE0918F03F0919003E217F30770
:1027E000A0F42E1B3F0B2817390778F0AC014E5F81
:1027F0005F4F2417350748F04E0F5F1F509390032B
:1028000040938F038193919302C0E0E0F0E0CF0109
:10281000DF91CF9108950F931F93CF93DF9300978C
:1028200009F48CC0FC01329713821282009191034B
:10283000109192030115110581F420813181820FDD
:10284000931F20918F03309190032817390779F552
:10285000F0939003E0938F0371C0D80140E050E003
:10286000AE17BF0750F412962D913C911397AD010E
:102870002115310509F1D901F3CF9D01DA01338327
:10288000228360817181860F971F8217930769F4F5
:10289000EC0128813981260F371F2E5F3F4F31838E
:1028A00020838A819B8193838283452B29F4F09333
:1028B0009203E093910342C01396FC93EE93129718
:1028C000ED01499159919E01240F351FE217F3073D
:1028D00071F480819181840F951F029611969C93CB
:1028E0008E938281938113969C938E931297E0E04E
:1028F000F0E0D80112968D919C911397009719F0F2
:10290000F8018C01F6CF8D919C9198012E5F3F4F7D
:10291000820F931F20918F0330919003281739075E
:1029200069F4309729F4109292031092910302C037
:10293000138212821093900300938F03DF91CF9143
:102940001F910F9108956F927F928F929F92AF92F5
:10295000BF92CF92DF92EF92FF920F931F93CF938C
:10296000DF93EC01009781F4CB01DF91CF911F91B0
:102970000F91FF90EF90DF90CF90BF90AF909F901E
:102980008F907F906F90B2CEFC01E60FF71F9C01F5
:1029900022503109E217F30708F4A8C0D9010D91BC
:1029A0001C91119706171707A8F00530110508F4B8
:1029B0009BC0C80104978617970708F495C002507A
:1029C0001109061B170B019311936D937C93CF0193
:1029D00022DF8AC05B01A01AB10A4C01800E911E51
:1029E000A0919103B091920340E050E0E12CF12CD2
:1029F000109709F44AC0A815B905D1F56D907C90DF
:102A00001197630182E0C80ED11CCA14DB0480F167
:102A1000A3014A195B096A0182E0C80ED11C129613
:102A2000BC9012971396AC91B5E0CB16D10440F050
:102A3000B282A38351834083D9016D937C930AC0F2
:102A40000E5F1F4FC301800F911FF9019183808397
:102A5000EB2DFA2FE114F10431F0D7011396FC931A
:102A6000EE93129741C0F0939203E09391033CC020
:102A70008D919C9111974817590708F4AC017D017D
:102A800012960D90BC91A02DB3CF80918F039091A1
:102A9000900388159905E1F446175707C8F480910B
:102AA000000290910102009741F48DB79EB74091CA
:102AB000040250910502841B950BE817F907B0F446
:102AC000F0939003E0938F03F901718360830CC04E
:102AD000CB010CDE7C01009749F0A801BE011BD0A0
:102AE000CE0199DEC70104C0CE0102C080E090E0B3
:102AF000DF91CF911F910F91FF90EF90DF90CF90DA
:102B0000BF90AF909F908F907F906F90089581E0DD
:102B100090E0F89419C0FB01DC0102C001900D9215
:102B200041505040D8F70895FB01DC018D91019090
:102B300080190110D9F3990B0895FB01DC01019074
:0C2B40000D920020E1F70895F894FFCFFB
:102B4C00000093038000585858585858583130306A
:102B5C0000000000190B190B4F03190B190B190B63
:102B6C00190B190B190B190B190B190B190B00005D
:102B7C000000950A1B044F034103690A520A0E0A0E
:102B8C008F052609200AB60AA5094B03420300004B
:102B9C0000004302B101DC0189020D02EB01FF01CF
:102BAC0000000000190BB1014F034E03190B190B58
:102BBC00190B000000007C0AB1014F034E03B20454
:102BCC0000000000190BB1014F034E030000000080
:102BDC00C5066469676974616C004400616E616C60
:102BEC006F670041006D6F6465000D0A00696E70BF
:0C2BFC007574006F757470757400FE0035
:00000001FF
